:100000000C9472000C9493000C9493000C94930045
:100010000C9493000C9493000C9493000C94930014
:100020000C9493000C9493000C9493000C94930004
:100030000C9493000C9493000C9493000C949500F2
:100040000C9493000C9493000C9493000C949300E4
:100050000C9493000C9493000C9493000C949300D4
:100060000C9493000C9493000C9493000C949300C4
:100070000C9493000C9493000C9493000C949300B4
:100080000C9493000C9493000C9493000C949300A4
:100090000C9493000C9493000C9493000C94930094
:1000A0000C9493000C9493000C9493000C94930084
:1000B0000C9493000C9493000C9493000C94930074
:1000C0000C9493000C9493000C9493000C94930064
:1000D0000C9493000C9493000C9493000C94930054
:1000E0000C94930011241FBECFEFD1E2DEBFCDBF31
:1000F00000E00CBF12E0A0E0B2E0E0E1F8E100E0D7
:100100000BBF02C007900D92A030B107D9F72EE0C7
:10011000A0E0B2E001C01D92A235B207E1F70E9453
:10012000FD000C94060C0C9400001F920F920FB669
:100130000F9211240BB60F928F93EF93FF93E091E0
:100140000202EF5FE0930202F0E0EA5BFB4F808186
:1001500082B9E0910202F0E0EE5AF44F808185B955
:10016000E0910202F0E0E757F74F808188B9E09113
:100170000202F0E0ED5FFD4F80818BB9E091020259
:10018000F0E0E757F64F80818EB9E0910202F0E08F
:10019000E757F84F808181BBE0910202F0E0EE5A10
:1001A000F24F808184BBE0910202F0E0EE5AF34FFF
:1001B000808180930201E0910202F0E0EA5BFC4F53
:1001C000808180930501E0910202F0E0E757F94F4A
:1001D000808180930801E0910202F0E0EA5BFA4F2F
:1001E000808180930B01FF91EF918F910F900BBE57
:1001F0000F900FBE0F901F901895CF93DF93CDB740
:10020000DEB7C259D1090FB6F894DEBF0FBECDBF1D
:100210008FEF80930A0180930701809304018093FC
:10022000010183BB80BB8DB987B98AB984B981B913
:100230001092B00081E08093B100809370007894B8
:1002400043E450E061E070E083E093E00E94FF0B44
:1002500043E450E061E070E086E496E00E94FF0B2A
:1002600002E51BE05FE0E52E5BE0F52EB7016F5085
:100270007B40072E000C880B990B0E94060B23EC89
:1002800035EF48E650E40E94920B20E030E040E277
:1002900051E40E94690A0E94D50AD7016D937D013D
:1002A0000A171B0719F7E9E8FAE0A3E0B3E066E4F0
:1002B00076E02FE03BE08D0117C0019791838083AA
:1002C000892B31F477247394D8017C92DB017C92E2
:1002D00032960F5F1F4F6F5F7F4F2F5F3F4F8FE053
:1002E0009BE08E179F0701F180819181009729F78C
:1002F000D8019C91DB018C91890FD8018C93D90195
:100300009C91891740F08FEF890FD8018C93772447
:100310007A94DB017C928111DBCF892F90E0880FEA
:10032000991F91838083D4CF60900303712C4090F8
:100330000403512C80910503A82FB0E0BC83AB834C
:1003400080910603E82FF0E0FE83ED8380910703A0
:10035000282F30E038872F8380910803A82FB0E042
:10036000BA87A98780910903E82FF0E0FC87EB8723
:1003700080910A03282F30E03E872D8780910B0360
:10038000A82FB0E0B88BAF8780910C03E82FF0E086
:10039000FA8BE98B80910D03282F30E03C8B2B8B5F
:1003A00080910E03A82FB0E0BE8BAD8B80910F0320
:1003B000E82FF0E0F88FEF8B80911003282F30E0CA
:1003C0003A8F298F80911103A82FB0E0BC8FAB8F9B
:1003D00080911203E82FF0E0FE8FED8F80911303E0
:1003E000282F30E038A32F8F80911403A82FB0E07E
:1003F000BAA3A9A380911503E82FF0E0FCA3EBA317
:1004000080911603282F30E03EA32DA3809117037F
:10041000A82FB0E0B8A7AFA380911803E82FF0E0B1
:10042000FAA7E9A780911903282F30E03CA72BA752
:1004300080911A03A82FB0E0BEA7ADA780911B033F
:10044000E82FF0E0F8ABEFA780911C03282F30E0F5
:100450003AAB29AB80911D03A82FB0E0BCABABAB8E
:1004600080911E03E82FF0E0FEABEDAB80911F03FF
:10047000282F30E038AF2FAB80912003A82FB0E0B9
:10048000BAAFA9AF80912103E82FF0E0FCAFEBAF4A
:1004900080912203282F30E03EAF2DAF80912303BF
:1004A000A82FB0E02196BFAFAEAF21978091240373
:1004B000E82FF0E02396FFAFEEAF2397809125035E
:1004C000282F30E025963FAF2EAF25978091260349
:1004D000A82FB0E02796BFAFAEAF27978091270334
:1004E000E82FF0E02996FFAFEEAF2997809128031F
:1004F000282F30E02B963FAF2EAF2B97809129030A
:10050000A82FB0E02D96BFAFAEAF2D9780912A03F4
:10051000E82FF0E02F96FFAFEEAF2F9780913203D8
:10052000282F30E061963FAF2EAF61978091310365
:10053000A82FB0E06396BFAFAEAF63978091300352
:10054000E82FF0E06596FFAFEEAF659780912F033F
:10055000282F30E067963FAF2EAF679780912E032C
:10056000A82FB0E06996BFAFAEAF699780912D0319
:10057000E82FF0E06B96FFAFEEAF6B9780912C0306
:10058000282F30E06D963FAF2EAF6D9780912B03F3
:10059000A82FB0E06F96BFAFAEAF6F9780913303D7
:1005A000E82FF0E0A196FFAFEEAFA1978091340362
:1005B000282F30E0A3963FAF2EAFA397809135034D
:1005C000A82FB0E0A596BFAFAEAFA5978091360338
:1005D000E82FF0E0A796FFAFEEAFA7978091370323
:1005E000282F30E0A9963FAF2EAFA997809138030E
:1005F000A82FB0E0AB96BFAFAEAFAB9780913903F9
:10060000E82FF0E0AD96FFAFEEAFAD9780913A03E3
:10061000282F30E0AF963FAF2EAFAF9780913B03CE
:10062000A82FB0E0E196BFAFAEAFE19780913C0359
:10063000E82FF0E0E396FFAFEEAFE39780913D0344
:10064000282F30E0E5963FAF2EAFE59780913E032F
:10065000A82FB0E0E796BFAFAEAFE79780913F031A
:10066000E82FF0E0E996FFAFEEAFE9978091400305
:10067000282F30E0EB963FAF2EAFEB9780914103F0
:10068000A82FB0E0ED96BFAFAEAFED9780914203DB
:10069000E82FF0E0EF96FFAFEEAFEF9780914303C6
:1006A000282F30E0C158DF4F39832883CF57D040FF
:1006B00080914403A82FB0E0CF57DF4FB983A883C0
:1006C000C158D04080914503E82FF0E0CD57DF4F6F
:1006D000F983E883C358D04080914603282F30E047
:1006E000CB57DF4F39832883C558D04080914703CB
:1006F000282E312CE2E5FBE002E51CE089E8A82E7B
:1007000089E0B82E92E5C92E9DE0D92E26E4822EEE
:1007100023E0922E33E0E32E32E0F32E66E474E021
:1007200049E858E026E435E089E896E0C957DF4F0C
:1007300099838883C758D040A9E8B7E080E090E06B
:10074000C157DF4F79826882CF58D040C757DF4FFB
:10075000B983A883C958D040CF56DF4F1983088387
:10076000C159D04089C3C757DF4FA881B981C95843
:10077000D0401C9111601C938415950508F093C31B
:100780001260C757DF4FA881B981C958D0401C9368
:10079000AB81BC818A179B0708F093C31460C757CD
:1007A000DF4FA881B981C958D0401C93AD81BE816B
:1007B0008A179B0708F093C31860C757DF4FA881BB
:1007C000B981C958D0401C93AF81B8858A179B075F
:1007D00008F093C31061C757DF4FA881B981C9588A
:1007E000D0401C93A985BA858A179B0708F093C34C
:1007F0001062C757DF4FA881B981C958D0401C93F8
:10080000AB85BC858A179B0708F093C31064C75754
:10081000DF4FA881B981C958D0401C93AD85BE85F2
:100820008A179B0708F093C31068C757DF4FA8814A
:10083000B981C958D0401C93AF85B8898A179B07E6
:1008400008F093C3C957DF4FA881B981C758D0407A
:100850001C9111601C93A989BA898A179B0708F01B
:1008600093C31260C957DF4FA881B981C758D040E0
:100870001C93AB89BC898A179B0708F093C314604B
:10088000C957DF4FA881B981C758D0401C93AD89A3
:10089000BE898A179B0708F093C31860C957DF4FBA
:1008A000A881B981C758D0401C93AF89B88D8A17E9
:1008B0009B0708F093C31061C957DF4FA881B98126
:1008C000C758D0401C93A98DBA8D8A179B0708F092
:1008D00093C31062C957DF4FA881B981C758D04070
:1008E0001C93AB8DBC8D8A179B0708F093C31064D3
:1008F000C957DF4FA881B981C758D0401C93AD8D2F
:10090000BE8D8A179B0708F093C31068C957DF4F45
:10091000A881B981C758D0401C93AF8DB8A1108170
:100920008A179B0708F093C311601083A9A1BAA18D
:100930008A179B0708F093C312601083ABA1BCA178
:100940008A179B0708F093C314601083ADA1BEA162
:100950008A179B0708F093C318601083AFA1B8A54E
:100960008A179B0708F093C3D9011C9111601C934F
:10097000A9A5BAA58A179B0708F093C31260D901ED
:100980001C93ABA5BCA58A179B0708F093C3146002
:10099000D9011C93ADA5BEA58A179B0708F093C388
:1009A0001860D9011C93AFA5B8A98A179B0708F056
:1009B00093C31061D9011C93A9A9BAA98A179B07EF
:1009C00008F093C31062D9011C93ABA9BCA9012FF5
:1009D0008A179B0708F093C30064D9010C93ADA953
:1009E000BEA98A179B0708F093C30068D9010C932E
:1009F000AFA9B8AD8A179B0708F093C3D6010C9135
:100A000001600C93A9ADBAAD8A179B0708F093C398
:100A10000260D6010C93ABADBCAD8A179B0708F002
:100A200093C30460D6010C93ADADBEAD8A179B078E
:100A300008F093C3D7010C9100680C932196AEADDA
:100A4000BFAD21978A179B0708F093C3DA011C9169
:100A50001160712E1C932396AEADBFAD23978A17FC
:100A60009B0708F093C3B72DB2607B2EDA017C920E
:100A70002596AEADBFAD25978A179B0708F093C3A7
:100A8000B72DB4607B2EDA017C922796AEADBFAD58
:100A900027978A179B0708F093C3B72DB8607B2E62
:100AA000DA017C922996AEADBFAD29978A179B07D4
:100AB00008F093C3B72DB0617B2EDA017C922B96A0
:100AC000AEADBFAD2B978A179B0708F093C3B72D28
:100AD000B0627B2EDA017C922D96AEADBFAD2D9724
:100AE0008A179B0708F093C3B72DB0647B2EDA01F9
:100AF0007C922F96AEADBFAD2F978A179B0708F05B
:100B000093C3B72DB0687B2EDA017C926196AEADAF
:100B1000BFAD61978A179B0708F093C3DB011C9157
:100B20001160712E1C936396AEADBFAD63978A17AB
:100B30009B0708F093C3B72DB2607B2EDB017C923C
:100B40006596AEADBFAD65978A179B0708F093C356
:100B5000B72DB4607B2EDB017C926796AEADBFAD46
:100B600067978A179B0708F093C3B72DB8607B2E51
:100B7000DB017C926996AEADBFAD69978A179B0782
:100B800008F093C3B72DB0617B2EDB017C926B968E
:100B9000AEADBFAD6B978A179B0708F093C3B72D17
:100BA000B0627B2EDB017C926D96AEADBFAD6D97D2
:100BB0008A179B0708F093C3B72DB0647B2EDB0127
:100BC0007C926F96AEADBFAD6F978A179B0708F00A
:100BD00093C3B72DB0687B2EDB017C92A196AEAD9E
:100BE000BFADA1978A179B0708F093C30160D70197
:100BF0000C93A396AEADBFADA3978A179B0708F0E1
:100C000093C30260D7010C93A596AEADBFADA59777
:100C10008A179B0708F093C30460D7010C93A7962B
:100C2000AEADBFADA7978A179B0708F093C30860C6
:100C3000D7010C93A996AEADBFADA9978A179B07B4
:100C400008F093C3CF56DF4FA881B981C159D04076
:100C50000C9101600C93AB96AEADBFADAB978A170C
:100C60009B0708F093C30260CF56DF4FA881B9817C
:100C7000C159D0400C93AD96AEADBFADAD978A17BC
:100C80009B0708F093C3D4010C9101600C93AF96BD
:100C9000AEADBFADAF978A179B0708F093C3026054
:100CA000D4010C93E196AEADBFADE1978A179B07D7
:100CB00008F093C3D5010C9101600C93E396AEAD9F
:100CC000BFADE3978A179B0708F093C30260D50175
:100CD0000C93E596AEADBFADE5978A179B0708F07C
:100CE00093C30063D5010C93E796AEADBFADE79714
:100CF0008A179B0708F093C3D6017C90B72DB0628A
:100D00007B2ED6017C92E996AEADBFADE9978A17EE
:100D10009B0708F093C30860D5010C93EB96AEAD2A
:100D2000BFADEB978A179B0708F093C3CF56DF4FF1
:100D3000A881B981C159D0400C9108600C93ED96FF
:100D4000AEADBFADED978A179B0708F093C3006166
:100D5000CF56DF4FA881B981C159D0400C93EF968F
:100D6000AEADBFADEF978A179B0708F093C3006243
:100D7000CF56DF4FA881B981C159D0400C93C158DB
:100D8000DF4FA881B981CF57D0408A179B0708F061
:100D900096C30064CF56DF4FA881B981C159D040B6
:100DA0000C93CF57DF4FA881B981C158D040108133
:100DB0008A179B0708F080C310611083CD57DF4F5F
:100DC000A881B981C358D0408A179B0708F071C326
:100DD00010621083CB57DF4FA881B981C558D0402E
:100DE0008A179B0708F062C310641083821593056D
:100DF00008F059C31068108301963196CF56DF4F23
:100E0000A881B981C159D0401196CF56DF4FB9831F
:100E1000A883C159D040BFEFAB1ABB0A1FEFC11A5C
:100E2000D10AAFEF8A1A9A0ABFEFEB1AFB0A6F5F7B
:100E30007F4F4F5F5F4F2F5F3F4FC957DF4FA881F5
:100E4000B981C758D0401196C957DF4FB983A883DD
:100E5000C758D040C757DF4FA881B981C958D04083
:100E60001196C757DF4FB983A883C958D040811561
:100E7000B1E09B0709F417CAC157DF4FA881B981B8
:100E8000CF58D0408A179B0708F46DCCC757DF4F67
:100E9000A881B981C958D0401C911E7F1C9384152C
:100EA000950508F46DCC1D7FC757DF4FA881B98128
:100EB000C958D0401C93AB81BC818A179B0708F4AA
:100EC0006DCC1B7FC757DF4FA881B981C958D0406F
:100ED0001C93AD81BE818A179B0708F46DCC177FE8
:100EE000C757DF4FA881B981C958D0401C93AF8143
:100EF000B8858A179B0708F46DCC1F7EC757DF4F54
:100F0000A881B981C958D0401C93A985BA858A1790
:100F10009B0708F46DCC1F7DC757DF4FA881B981AF
:100F2000C958D0401C93AB85BC858A179B0708F431
:100F30006DCC1F7BC757DF4FA881B981C958D040FE
:100F40001C93AD85BE858A179B0708F46DCC1F776F
:100F5000C757DF4FA881B981C958D0401C93AF85CE
:100F6000B8898A179B0708F46DCCC957DF4FA88151
:100F7000B981C758D0401C911E7F1C93A989BA899A
:100F80008A179B0708F46DCC1D7FC957DF4FA881D6
:100F9000B981C758D0401C93AB89BC898A179B077D
:100FA00008F46DCC1B7FC957DF4FA881B981C758A2
:100FB000D0401C93AD89BE898A179B0708F46DCC7D
:100FC000177FC957DF4FA881B981C758D0401C93FC
:100FD000AF89B88D8A179B0708F46DCC1F7EC9575F
:100FE000DF4FA881B981C758D0401C93A98DBA8D15
:100FF0008A179B0708F46DCC1F7DC957DF4FA88166
:10100000B981C758D0401C93AB8DBC8D8A179B0704
:1010100008F46DCC1F7BC957DF4FA881B981C75831
:10102000D0401C93AD8DBE8D8A179B0708F46DCC04
:101030001F77C957DF4FA881B981C758D0401C938B
:10104000AF8DB8A110818A179B0708F46DCC1E7F65
:101050001083A9A1BAA18A179B0708F46DCC1D7F44
:101060001083ABA1BCA18A179B0708F46DCC1B7F32
:101070001083ADA1BEA18A179B0708F46DCC177F22
:101080001083AFA1B8A58A179B0708F46DCCD901CE
:101090001C911E7F1C93A9A5BAA58A179B0708F46B
:1010A0006DCC1D7FD9011C93ABA5BCA58A179B07EE
:1010B00008F46DCC1B7FD9011C93ADA5BEA58A1782
:1010C0009B0708F46DCC177FD9011C93AFA5B8A975
:1010D0008A179B0708F46DCC1F7ED9011C93A9A920
:1010E000BAA98A179B0708F46DCC1F7DD9011C9300
:1010F000ABA9BCA9012F8A179B0708F46DCC0F7B05
:10110000D9010C93ADA9BEA98A179B0708F46DCC31
:101110000F77D9010C93AFA9B8AD8A179B0708F4D4
:101120006DCCD6010C910E7F0C93A9ADBAAD8A1788
:101130009B0708F46DCC0D7FD6010C93ABADBCAD15
:101140008A179B0708F46DCC0B7FD6010C93ADADCD
:10115000BEAD8A179B0708F46DCCD7010C910F77B1
:101160000C932196AEADBFAD21978A179B0708F46B
:101170006DCCDA011C911E7F712E1C932396AEADAF
:10118000BFAD23978A179B0708F46DCCB72DBD7FA1
:101190007B2EDA017C922596AEADBFAD25978A17DE
:1011A0009B0708F46DCCB72DBB7F7B2EDA017C92B8
:1011B0002796AEADBFAD27978A179B0708F46DCC75
:1011C000B72DB77F7B2EDA017C922996AEADBFADED
:1011D00029978A179B0708F46DCCB72DBF7E7B2E0D
:1011E000DA017C922B96AEADBFAD2B978A179B0789
:1011F00008F46DCCB72DBF7D7B2EDA017C922D9645
:10120000AEADBFAD2D978A179B0708F46DCCB72DF7
:10121000BF7B7B2EDA017C922F96AEADBFAD2F97B0
:101220008A179B0708F46DCCB72DBF777B2EDA01A8
:101230007C926196AEADBFAD61978A179B0708F4AB
:101240006DCCDB011C911E7F712E1C936396AEAD9D
:10125000BFAD63978A179B0708F46DCCB72DBD7F90
:101260007B2EDB017C926596AEADBFAD65978A178C
:101270009B0708F46DCCB72DBB7F7B2EDB017C92E6
:101280006796AEADBFAD67978A179B0708F46DCC24
:10129000B72DB77F7B2EDB017C926996AEADBFADDB
:1012A00069978A179B0708F46DCCB72DBF7E7B2EFC
:1012B000DB017C926B96AEADBFAD6B978A179B0737
:1012C00008F46DCCB72DBF7D7B2EDB017C926D9633
:1012D000AEADBFAD6D978A179B0708F46DCCB72DE7
:1012E000BF7B7B2EDB017C926F96AEADBFAD6F975F
:1012F0008A179B0708F46DCCB72DBF777B2EDB01D7
:101300007C92A196AEADBFADA1978A179B0708F45A
:101310006DCC0E7FD7010C93A396AEADBFADA39756
:101320008A179B0708F46DCC0D7FD7010C93A59607
:10133000AEADBFADA5978A179B0708F46DCC0B7FA8
:10134000D7010C93A796AEADBFADA7978A179B07A1
:1013500008F46DCC077FD7010C93A996AEADBFAD55
:10136000A9978A179B0708F46DCCCF56DF4FA88149
:10137000B981C159D0400C910E7F0C93AB96AEADA4
:10138000BFADAB978A179B0708F46DCC0D7FCF5686
:10139000DF4FA881B981C159D0400C93AD96AEAD55
:1013A000BFADAD978A179B0708F46DCCD4010C91A3
:1013B0000E7F0C93AF96AEADBFADAF978A179B076C
:1013C00008F46DCC0D7FD4010C93E196AEADBFADAA
:1013D000E1978A179B0708F46DCCD5010C910E7F1D
:1013E0000C93E396AEADBFADE3978A179B0708F465
:1013F0006DCC0D7FD5010C93E596AEADBFADE597F5
:101400008A179B0708F46DCC0F7CD5010C93E796E7
:10141000AEADBFADE7978A179B0708F46DCCD60138
:101420007C90B72DBF7D7B2ED6017C92E996AEAD28
:10143000BFADE9978A179B0708F46DCC077FD501EC
:101440000C93EB96AEADBFADEB978A179B0708F4F4
:101450006DCCCF56DF4FA881B981C159D0400C91D6
:10146000077F0C93ED96AEADBFADED978A179B0746
:1014700008F46DCC0F7ECF56DF4FA881B981C159DA
:10148000D0400C93EF96AEADBFADEF978A179B0798
:1014900008F46DCC0F7DCF56DF4FA881B981C159BB
:1014A000D0400C936CCC1F771083A6CC1F7B10838D
:1014B0009DCC1F7D10838ECC1F7E10837FCC0F7B35
:1014C000CF56DF4FA881B981C159D0400C9369CC68
:1014D0005058BB27AA270E94800A0C94580B0E94E0
:1014E0004A0B38F00E94510B20F039F49F3F19F459
:1014F00026F40C94470B0EF4E095E7FB0C94410B9B
:10150000E92F0E94690B58F3BA1762077307840723
:10151000950720F079F4A6F50C948B0B0EF4E0956A
:101520000B2EBA2FA02D0B01B90190010C01CA019D
:10153000A0011124FF27591B99F0593F50F4503E48
:1015400068F11A16F040A22F232F342F4427585F3A
:10155000F3CF469537952795A795F0405395C9F752
:101560007EF41F16BA0B620B730B840BBAF091500A
:10157000A1F0FF0FBB1F661F771F881FC2F70EC0A9
:10158000BA0F621F731F841F48F48795779567957C
:10159000B795F7959E3F08F0B0CF9395880F08F068
:1015A0009927EE0F9795879508950E94710B88F003
:1015B0009F5798F0B92F9927B751B0F0E1F0660F17
:1015C000771F881F991F1AF0BA95C9F714C0B13058
:1015D00091F00E948B0BB1E008950C948B0B672F58
:1015E000782F8827B85F39F0B93FCCF38695779587
:1015F0006795B395D9F73EF4909580957095619570
:101600007F4F8F4F9F4F0895E89409C097FB3EF49A
:1016100090958095709561957F4F8F4F9F4F99233F
:10162000A9F0F92F96E9BB279395F69587957795BD
:101630006795B795F111F8CFFAF4BB0F11F460FF7D
:101640001BC06F5F7F4F8F4F9F4F16C0882311F0D5
:1016500096E911C0772321F09EE8872F762F05C0E9
:10166000662371F096E8862F70E060E02AF09A9584
:10167000660F771F881FDAF7880F9695879597F979
:10168000089597F99F6780E870E060E008959FEF04
:1016900080EC089500240A94161617061806090609
:1016A000089500240A9412161306140605060895D8
:1016B000092E0394000C11F4882352F0BB0F40F460
:1016C000BF2B11F460FF04C06F5F7F4F8F4F9F4FA0
:1016D000089557FD9058440F551F59F05F3F71F022
:1016E0004795880F97FB991F61F09F3F79F0879589
:1016F0000895121613061406551FF2CF4695F1DF12
:1017000008C0161617061806991FF1CF86957105A1
:10171000610508940895E894BB2766277727CB01D5
:1017200097F908950E94A50B0C94580B0E944A0B40
:1017300038F00E94510B20F0952311F00C94410BCE
:101740000C94470B11240C948C0B0E94690B70F3C2
:10175000959FC1F3950F50E0551F629FF001729F56
:10176000BB27F00DB11D639FAA27F00DB11DAA1F65
:10177000649F6627B00DA11D661F829F2227B00DB2
:10178000A11D621F739FB00DA11D621F839FA00D3D
:10179000611D221F749F3327A00D611D231F849F8D
:1017A000600D211D822F762F6A2F11249F575040E4
:1017B0009AF0F1F088234AF0EE0FFF1FBB1F661F5F
:1017C000771F881F91505040A9F79E3F510580F028
:1017D0000C94410B0C948C0B5F3FE4F3983ED4F3D4
:1017E000869577956795B795F795E7959F5FC1F7CC
:1017F000FE2B880F911D9695879597F90895DC012A
:1018000001C06D9341505040E0F70895F894FFCF28
:00000001FF
